:020000040800F2
:1000000058230020010100081D2000081F200008BF
:1000100023200008272000082B20000800000000F3
:100020000000000000000000000000002F20000879
:1000300031200008000000003320000835200008AF
:100040001B0100081B0100081B010008AF2000086D
:100050001B0100081B0100081B0100081B01000810
:100060001B0100081B0100081B0100081B01000800
:100070001B0100081B0100081B0100081B010008F0
:100080001B0100081B0100081B0100081B010008E0
:100090001B0100081B0100081B0100081B010008D0
:1000A0001B0100081B0100081B0100081B010008C0
:1000B000C12200082B2700081B0100081B010008B3
:1000C0001B0100081B0100081B0100081B010008A0
:1000D0001B0100083F200008A12700087720000826
:1000E0001B0100081B0100081B010008DFF80CD0F1
:1000F00004F078FA00480047631F000858230020E6
:100100000648804706480047FEE7FEE7FEE7FEE7B1
:10011000FEE7FEE7FEE7FEE7FEE7FEE70302000874
:10012000ED0000080CB50020019000906C480068BC
:1001300040F480306A49086000BF6948006800F4F4
:10014000003000900198401C0190009818B9019867
:10015000B0F5A06FF1D16248006800F4003010B132
:100160000120009001E0002000900098012843D178
:100170005C48006840F010005A4908600846006872
:1001800020F0030008600846006840F002000860A4
:1001900053484068524948600846406848600846ED
:1001A000406840F4806048600846406820F47C1055
:1001B00048600846406840F4E81048600846006817
:1001C00040F08070086000BF4548006800F0007093
:1001D0000028F9D04248406820F0030040494860B8
:1001E0000846406840F00200486000BF3C48406854
:1001F00000F00C000828F9D10CBD10B5FFF792FFF4
:1002000010BD10B53648006840F001003449086060
:10021000084640683449084031494860084600684B
:10022000324908402E4908600846006820F48020C2
:1002300008600846406820F4FE0048604FF41F0044
:100240008860FFF7DAFF4FF000602949086010BDB1
:1002500010B5002100200022214B5B6803F00C0147
:1002600021B1042906D0082928D107E0214B224CCE
:10027000236027E01F4B204C236023E0184B5B6872
:1002800003F47010164B5B6803F48032022303EB17
:10029000904022B9194B4343174C23600DE0104B9B
:1002A0005B6803F4003323B1144B4343124C2360C7
:1002B00003E0104B4343104C236003E00D4B0E4C06
:1002C000236000BF00BF064B5B68C3F303130C4CF5
:1002D000E15C094B1B68CB40074C236010BD00005C
:1002E00000100240002002400000FFF8FFFFF6FE71
:1002F00008ED00E000127A000000002000093D0037
:100300000400002031490143314A1160704770B543
:10031000002100230F22C47804B32D4C246804F478
:10032000E064C4F5E064210AC1F10403CA404478E2
:1003300004FA03F18478144021430901254C06781E
:10034000A155047804F01F050124AC4005786D1117
:10035000AD0005F1E025C5F8004109E0047804F09E
:100360001F050124AC401C4D0678761145F8264047
:1003700070BD1A4A0A400243154B1B1F1A60704792
:1003800039B1134A121D12680243114B1B1D1A602A
:1003900006E00F4A121D126882430D4B1B1D1A60A6
:1003A0007047042808D14FF0E021096941F00401A9
:1003B0004FF0E022116107E04FF0E021096921F0E0
:1003C00004014FF0E0221161704700000000FA05BF
:1003D0000CED00E000E400E080E100E080FFFF1FA2
:1003E00010B50446CC48844208D10121042000F015
:1003F0004DFB0021042000F049FB46E0C748844241
:1004000008D10121082000F041FB0021082000F064
:100410003DFB3AE0C248844208D10121102000F09F
:1004200035FB0021102000F031FB2EE0BD48844256
:1004300008D10121202000F029FB0021202000F01C
:1004400025FB22E0B848844208D10121402000F079
:100450001DFB0021402000F019FB16E0B348844248
:1004600008D10121802000F011FB0021802000F044
:100470000DFB0AE0AE48844207D10121801500F04F
:1004800005FB0021A01500F001FB10BD10B50121F6
:10049000084600F0FBFA0021012000F0F7FA10BD39
:1004A0002DE9F0410246002500260020002300240B
:1004B000002791F803C00CF00F0591F803C00CF071
:1004C000100CBCF1000F03D091F802C04CEA0505F6
:1004D00091F800C0BCF1000F31D0146800202BE06F
:1004E0004FF0010C0CFA00F3B1F800C00CEA03065F
:1004F0009E4220D183004FF00F0C0CFA03F7BC434F
:1005000005FA03FC4CEA040491F803C0BCF1280F7F
:1005100006D14FF0010C0CFA00FCC2F814C00AE03E
:1005200091F803C0BCF1480F05D14FF0010C0CFA53
:1005300000FCC2F810C0401C0828D1D31460B1F8E8
:1005400000C0BCF1FF0F34DD546800202EE000F144
:10055000080C4FF0010808FA0CF3B1F800C00CEADF
:1005600003069E4221D183004FF00F0C0CFA03F7D3
:10057000BC4305FA03FC4CEA040491F803C0BCF147
:10058000280F05D100F1080C08FA0CF8C2F8148005
:1005900091F803C0BCF1480F07D100F1080C4FF0EF
:1005A000010808FA0CF8C2F81080401C0828CED3C5
:1005B0005460BDE8F0814FF6FF7101800221817027
:1005C0000421C17070470246002093680B400BB1B4
:1005D000012000E0002070470146886880B2704723
:1005E00002460020D3680B400BB1012000E0002040
:1005F00070470146C86880B2704701617047416129
:1006000070470AB1016100E041617047C160704705
:100610004FF480320A43826181618261826982691A
:10062000704702460020434B18684FF6807318400D
:1006300040EA021008433F4B186070473E49C861CA
:100640007047F0B50A46002300240021002500F081
:100650000046B6F1004F02D1364EF16901E0354E49
:100660007168C0F3034583B200F44016B6F5401F2D
:1006700008D121F070612F4E766826F070662D4FFC
:100680007E6012E000F48016B6F5801F06D10326C6
:1006900006FA05F4A14341F0706106E0460D36010B
:1006A00003FA06F6B14341F0706122B1460D3601FE
:1006B00003FA06F6314300F00046B6F1004F02D1CE
:1006C0001C4EF16101E01B4E7160F0BD30B500229F
:1006D0008B071C0F0F2303FA04F2164B08338C1000
:1006E00053F824309343134C08348D1044F82530CC
:1006F00023468C1053F824308C07240F00FA04F49E
:1007000023430C4C08348D1044F8253030BD0A4981
:10071000DC3108607047000000080140000C014017
:10072000001001400014014000180140001C01406D
:100730000020014000000140000020420E490860F6
:1007400070470D49486070470B49886070474AF60A
:10075000AA200949086070474CF6CC400649086059
:10076000704701460020044AD2680A400AB10120BD
:1007700000E000207047000000300040DF480068C3
:1007800040F00100DD49086008464068DC49084047
:10079000DA49486008460068DA490840D7490860E5
:1007A0000846006820F4802008600846406820F46D
:1007B000FE0048604FF41F0088607047CF49096809
:1007C00021F48031CD4A11601146096821F480215D
:1007D0001160B0F5803F03D0B0F5802F0ED106E058
:1007E000C649096841F48031C44A116007E0C34931
:1007F000096841F4A021C14A116000E000BF00BFB8
:10080000704710B501460022002300204A11012A3A
:1008100002D1BA4C236806E0022A02D1B74C236AFF
:1008200001E0B64C636A01F01F02012494401C40B1
:100830000CB1012000E0002010BD38B50020009070
:100840000024002500BF3120FFF7DBFF054600989C
:10085000401C00900098B0F5A06F01D0002DF2D0A0
:100860003120FFF7CEFF08B1012400E0002420462C
:1008700038BD01460020A14A106820F0F80040EA87
:10088000C10010607047A049086070470246002010
:100890009A4B586820F47C1042EA01031843974BA6
:1008A0005860704798490866704701460020934A8F
:1008B000506820F003000843506070478F4840683C
:1008C00000F00C007047014600208C4A506820F070
:1008D000F00008435060704701460020874A506886
:1008E00020F4E06008435060704701460020834ACE
:1008F000506820F4605040EAC1005060704729B150
:100900007E4A527A02437D4B5A7204E07B4A527A05
:1009100082437A4B5A7270477B49D83108607047DE
:1009200001460020754A506820F44040084350605A
:1009300070470021714A20321170704A82F82010ED
:10094000012802D004280AD104E001216B4A203298
:10095000117005E00521694A2032117000E000BFE6
:1009600000BF70476949086070476449096A0143DC
:10097000624A11627047654944390860704730B572
:1009800000210022002400235C4D6D6805F00C015D
:1009900021B1042905D0082923D105E05C4D05606B
:1009A00022E05B4D05601FE0544D6D6805F4701248
:1009B000524D6D6805F48034022505EB92421CB956
:1009C000544D554305600BE04C4D6D6805F4003502
:1009D0001DB1504D5543056002E04D4D5543056036
:1009E00002E04B4D056000BF00BF444D6D6805F04F
:1009F000F0010909484D6B5C0568DD4045603F4DDD
:100A00006D6805F4E061090A434D6B5C4568DD40A3
:100A100085603A4D6D6805F46051C90A3E4D6B5CC6
:100A20004568DD40C560354D6D6805F44041890B72
:100A30003A4D6B5CC568B5FBF3F5056130BD29B176
:100A40002E4A526902432D4B5A6104E02B4A5269E7
:100A500082432A4B5A61704729B1284A926902435E
:100A6000264B9A6104E0254A92698243234B9A619E
:100A7000704729B1214AD2690243204BDA6104E070
:100A80001E4AD26982431D4BDA61704729B11B4A65
:100A9000D2680243194BDA6004E0184AD2688243F4
:100AA000164BDA60704729B1144A12690243134B9E
:100AB0001A6104E0114A12698243104B1A617047AF
:100AC00012494039086070470F49C86470470B49A4
:100AD000C87170470948406A40F080700749486211
:100AE000704701460020054A92680A400AB1012079
:100AF00000E00020704701498872704700100240F2
:100B00000000FFF8FFFFF6FE000042428004424270
:100B100000127A0000093D0014000020240000208B
:100B200029B1504A128802434E4B1A8004E04D4AC4
:100B3000128882434B4B1A8070474A48001D008838
:100B400040F010004749091D088070474548001DC6
:100B500000884FF6EF7108404249091D0880704730
:100B6000002140481C300188001F008841EA0040F5
:100B7000704700B50246FFF7E0FF100C3949183105
:100B80000880091D0A80FFF7E1FF00BD00B502469D
:100B9000FFF7D3FFC2F30340324908310880091D33
:100BA0000A80FFF7D3FF00BD00B50246FFF7C5FF7F
:100BB000100C2C4920310880091D0A80FFF7C6FF60
:100BC00000BD00202749103109880907080B254975
:100BD000143109880843704700BF2248001D00886F
:100BE00000F020000028F8D070471E48001D008843
:100BF0004FF6F77108401B49091D088000BF1948CE
:100C0000001D008800F008000028F8D07047014659
:100C10000020144A121D12880A400AB1012000E087
:100C2000002070470F49091D098881430D4A121D94
:100C300011807047014600200A4A121D12880A409E
:100C4000D0B2084A12880A4012B108B1012000E06F
:100C5000002070470349091D09888143014A121D7C
:100C6000118070470028004010B50446FE488442B9
:100C700008D10121C014FFF709FF0021E014FFF79C
:100C800005FFC4E0B4F1804F08D101210846FFF709
:100C90000AFF00210120FFF706FFB8E0F348844275
:100CA00008D101210220FFF7FEFE00210220FFF7FC
:100CB000FAFEACE0EE48844208D101210420FFF79F
:100CC000F2FE00210420FFF7EEFEA0E0E948844296
:100CD00008D101210820FFF7E6FE00210820FFF7D8
:100CE000E2FE94E0E448844208D101211020FFF79D
:100CF000DAFE00211020FFF7D6FE88E0DF488442AC
:100D000008D101212020FFF7CEFE00212020FFF78F
:100D1000CAFE7CE0DA48844208D101214014FFF782
:100D2000B5FE00216014FFF7B1FE70E0D5488442A3
:100D300009D10121C804FFF7A9FE00214FF40020CA
:100D4000FFF7A4FE63E0D048844209D101210805E1
:100D5000FFF79CFE00214FF48010FFF797FE56E04E
:100D6000CA48844209D101214805FFF78FFE0021BE
:100D70004FF40010FFF78AFE49E0C548844208D1CD
:100D800001214020FFF78FFE00214020FFF78BFE5E
:100D90003DE0C048844208D101218020FFF783FE56
:100DA00000218020FFF77FFE31E0BB48844208D15C
:100DB00001218015FFF777FE0021A015FFF773FED4
:100DC00025E0B648844209D101210804FFF75EFE00
:100DD00000214FF48030FFF759FE18E0B0488442FC
:100DE00009D101214804FFF751FE00214FF40030E2
:100DF000FFF74CFE0BE0AB48844208D10121880488
:100E0000FFF744FE00214FF48020FFF73FFE10BDA6
:100E100000220288944B98420ED0994B98420BD0F6
:100E2000B0F1804F08D0914B984205D0904B98423A
:100E300002D0904B984204D14FF68F731A404B88E2
:100E40001A438D4B984207D08C4B984204D04FF6F2
:100E5000FF431A40CB881A4302808B8883850B8816
:100E60000385814B98420BD0854B984208D08B4B21
:100E7000984205D08A4B984202D08A4B984201D1C1
:100E80000B7A038601238382704770B50024002209
:100E90000023058C4FF6FE7635400584028C83884E
:100EA000048B4FF68F752C40B51E2C400D882C43BB
:100EB000751E2A400D892A434D882A436A4DA8424F
:100EC0000BD06F4DA84208D0744DA84205D0744D88
:100ED000A84202D0734DA84213D14FF6F7752A40AD
:100EE0004D892A434FF6FB752A408D882A434FF6D9
:100EF000FF652B404FF6FF552B408D892B43CD8945
:100F00002B4383800483CD888586028470BD70B5B1
:100F1000002400220023058C4FF6EF76354005842F
:100F2000028C8388048B48F6FF752C404FF6FF45F2
:100F30002C400D884FF6FF7606EA05252C434FF628
:100F4000DF752A400D8906EA05152A434D8806EA11
:100F500005152A43444DA84202D0494DA8421DD14F
:100F60004FF67F752A404D894FF6FF7606EA051544
:100F70002A434FF6BF752A408D8806EA05152A4395
:100F80004FF6FF352B404FF2FF752B408D8906EA57
:100F900085052B43CD8906EA85052B438380048391
:100FA000CD880587028470BD70B50024002200231F
:100FB000058C4FF6FF6635400584028C8388848B50
:100FC0004FF68F752C404FF6FC752C400D882C4346
:100FD0004FF6FF552A400D894FF6FF7606EA0525A4
:100FE0002A434D8806EA05252A431F4DA84202D010
:100FF000234DA8421DD14FF2FF752A404D894FF66F
:10100000FF7606EA05252A434FF6FF352A408D88EC
:1010100006EA05252A434EF6FF752B404DF6FF756F
:101020002B408D8906EA05152B43CD8906EA051567
:101030002B4383808483CD888587028470BD70B5FF
:10104000002200230024058C4EF6FF7635400584EF
:10105000038C8488828B48F6FF752A404FF6FF4543
:101060002A400D8820E00000002C014000040040D0
:1010700000080040000C0040001000400014004038
:1010800000340140004C0140005001400054014038
:1010900000180040001C00400020004000400140BB
:1010A00000440140004801404FF6FF7606EA05255E
:1010B0002A434DF6FF752B400D8906EA05352B4373
:1010C0004D8806EA05352B43FA4DA84202D0FA4D69
:1010D000A84208D14BF6FF752C408D894FF6FF765C
:1010E00006EA85152C4384808283CD88A0F8405081
:1010F000038470BD828B4FF2FF331A408283828B50
:101100004FF6FF7303EA01231A4382837047F0B559
:101110000C461546002200210026078C4EF6FF7C67
:1011200007EA0C070784828B018C4FF6FF7707EAEA
:10113000043640F6FF473A404FF6FF7707EA0527A7
:101140003A434FF6FF7707EA03373A43D94FB8429D
:101150000ED0D94FB8420BD0B0F1804F08D0D74F46
:10116000B84205D0D64FB84202D0D64FB84206D1C9
:101170004DF6FF77394046F48057394305E047F68E
:10118000FF57394044F48057394382830184F0BDCE
:10119000828B4FF6F3731A408283828B0A438283D9
:1011A0007047F0B50C461546002200210026078C3A
:1011B0004FF6FF6C07EA0C070784828B018C4FF611
:1011C000FF7707EA04264FF60C773A404FF6FF7791
:1011D00007EA03172F433A43B64FB8420ED0B64F33
:1011E000B8420BD0B0F1804F08D0B44FB84205D010
:1011F000B34FB84202D0B34FB84206D14FF6FF57B3
:10120000394046F48077394305E04FF2FF573940C3
:1012100044F48077394382830184F0BD028B4FF21E
:10122000FF331A400283028B4FF6FF7303EA012358
:101230001A4302837047F0B50C4615460022002180
:101240000026078C4FF6EF7C07EA0C070784028B19
:10125000018C4FF6FF7707EA041640F6FF473A4045
:101260004FF6FF7707EA03373A434FF6FF7707EA6F
:1012700005273A438F4FB8420ED08F4FB8420BD05C
:10128000B0F1804F08D08D4FB84205D08C4FB84296
:1012900002D08C4FB84206D14FF6DF77394046F086
:1012A0001007394305E04FF65F77394044F01007E7
:1012B000394302830184F0BD028B4FF6F3731A4069
:1012C0000283028B0A4302837047F0B50C46154631
:1012D00000220021068C4FF6FE773E400684028BEA
:1012E000018C4FF60C7632407E1C06EA03162E4324
:1012F0003243704EB0420ED06F4EB0420BD0B0F1C0
:10130000804F08D06D4EB04205D06D4EB04202D035
:101310006C4EB04206D14FF6FD76314044F00106E6
:10132000314305E04FF6F576314044F00106314394
:1013300002830184F0BD70B505460C465D488542C8
:101340000ED05D4885420BD0B5F1804F08D05B4888
:10135000854205D05A48854202D05A48854200D17C
:1013600000E000BF208850B92389A2886188284600
:10137000FFF7ABFFE1882846FFF79EFF25E02088B6
:1013800004280AD12389A28861882846FFF753FFE1
:10139000E1882846FFF742FF17E0208808280AD195
:1013A0002389A28861882846FFF7FBFEE18828464A
:1013B000FFF7EEFE09E02389A28861882846FFF73F
:1013C000A6FEE1882846FFF795FE70BD2DE9F041A5
:1013D00005460C4600260127608808B9022600E071
:1013E0000026A088012801D1022700E001272088DB
:1013F000A0B92389A28861882846FFF766FFE188A3
:101400002846FFF759FF23893A4631462846FFF719
:1014100012FFE1882846FFF701FF13E02389A28825
:1014200061882846FFF707FFE1882846FFF7F6FEA8
:1014300023893A4631462846FFF747FFE188284688
:10144000FFF73AFFBDE8F0810A884B881A438B8882
:101450001A43CB881A430B891A434B891A438B8949
:101460001A43A0F8442070474FF6FF718180002195
:101470000180C1804180017270470021018041805C
:101480008180C180018141818181C18170470021BA
:1014900001804180012181800021C180018170474C
:1014A0000021018041808180C18001814181818151
:1014B00070470000002C014000340140000400404F
:1014C00000080040000C004021B1028842F00102F7
:1014D000028004E002884FF6FE731A4002807047D3
:1014E00031B1B0F8442042F40042A0F8442005E0B5
:1014F000B0F84420C2F30E02A0F8442070471AB19D
:1015000083890B43838102E083898B438381704706
:101510008182704741EA0203A0F8483070471AB14F
:1015200083890B43838102E083898B4383817047E6
:1015300001894FF6F8721140018170470A46002177
:1015400001894FF68F73194011430181704730B5FF
:1015500004460D4629462046FFF7F0FF208940F05B
:101560000700208130BD2DE9F04104460D461646A6
:101570001F46602D06D13B46012231462046FFF72B
:101580005AFE05E03B46012231462046FFF79DFE0C
:1015900029462046FFF7D2FF208940F0070020812E
:1015A000BDE8F08130B50C4600210189C9B24FF683
:1015B000FF7505EA0325154325432943018130BD05
:1015C0002DE9F04105460E4617469846002443464D
:1015D0003A4631462846FFF7E5FF2C894FF6F8706A
:1015E000044044F007044FF68F70044044F0700448
:1015F0002C81BDE8F081F0B504460D4616461F4625
:101600003B46324629462046FFF7CCFF208940F46E
:1016100080402081F0BD0185828270470A4600210A
:1016200001884FF68F731940114301807047F0B560
:101630000C4615461E460021002200230189028B1C
:10164000038C4FF6F877394021434FF6FC473A4078
:1016500040F201173A434FF6DD773B404FF6FF77F4
:1016600007EA06172F433B43018102830384F0BD41
:101670000A460021018B4FF68F73194011430183F5
:1016800070470A460021018B48F6FF7319404FF658
:10169000FF7303EA02231943018370470A460021BE
:1016A000818B4FF68F7319401143818370470A462F
:1016B0000021818B48F6FF7319404FF6FF7303EA50
:1016C000022319438183704721B1028842F08002CE
:1016D000028004E002884FF67F731A400280704750
:1016E00021B1828842F00402828004E082884FF6B1
:1016F000FB731A408280704721B1828842F0080251
:10170000828004E082884FF6F7731A408280704727
:1017100021B1828842F00102828004E082884FF683
:10172000FE731A40828070470A460021018B4FF6F3
:10173000F77319401143018370470A460021018B5A
:101740004FF2FF7319404FF6FF7303EA0223194368
:10175000018370470A460021818B4FF6F7731940C9
:101760001143818370470A460021818B4FF2FF733A
:1017700019404FF6FF7303EA022319438183704730
:101780000A460021018B4FF6FB7319401143018378
:1017900070470A460021018B4FF6FF3319404FF680
:1017A000FF7303EA02231943018370470A460021AD
:1017B000818B4FF6FB7319401143818370470A46B2
:1017C0000021818B4FF6FF3319404FF6FF7303EA78
:1017D00002231943818370470A460021018B4FF68B
:1017E0007F7319401143018370470A460021018B22
:1017F000C1F30E014FF6FF7303EA0223194301837D
:1018000070470A460021818B4FF67F7319401143C0
:10181000818370470A460021818BC1F30E014FF688
:10182000FF7303EA02231943818370470A460021AC
:10183000018C4FF6FD7319401143018470470A462D
:101840000021018C4FF6F773194011430184704752
:101850000A460021018C4FF6DF7319404FF6FF73E3
:1018600003EA02131943018470470A460021018CE0
:101870004FF67F7319404FF6FF7303EA02131943C3
:10188000018470470A460021018C4FF6FF5319402E
:101890004FF6FF7303EA02231943018470470A4697
:1018A0000021018C4FF2FF7319404FF6FF7303EADA
:1018B00002231943018470470A460021018C4DF62A
:1018C000FF7319404FF6FF7303EA02331943018493
:1018D000704730B5002301248C40A3B2048C9C4394
:1018E0000484048C02FA01F5ADB22C43048430BDAB
:1018F00030B5002304248C40A3B2048C9C430484A0
:10190000048C02FA01F5ADB22C43048430BD70B5ED
:101910000346002000241846183001258D40ACB243
:101920001D8CA5431D8409B1082909D100EB610074
:10193000056825F0700505600568154305600EE033
:101940000D1FC5F34E052844056825F4E0450560E4
:1019500005684FF6FF7606EA02263543056070BD3E
:1019600021B1028842F00202028004E002884FF6B0
:10197000FD731A400280704721B1028842F00402D0
:10198000028004E002884FF6FB731A400280704721
:1019900021B1828842F08002828004E082884FF682
:1019A0007F731A408280704702884FF6F7731A409F
:1019B000028002880A430280704782884FF68F7344
:1019C0001A40828082880A438280704702894FF6DB
:1019D000F8731A40028102890A4302817047028922
:1019E0004FF67F731A40028102890A4302817047D1
:1019F0008184704781857047818670470187704771
:101A000081877047A0F84010704702884FF6FF4367
:101A10001A40028002880A43028070470146888E7D
:101A200070470146088F70470146888F704701460E
:101A3000B1F8400070470146888C70470146088D18
:101A4000704702460020138A0B400BB1012000E0D2
:101A500000207047CA430282704730B5024600201A
:101A600000230024158A05EA0103958905EA01048B
:101A700013B10CB1012000E0002030BDCA43028246
:101A80007047000010B50446FB48844209D101218B
:101A90008803FEF7FBFF00214FF48040FEF7F6FFBE
:101AA00032E0F648844209D101214804FEF7FBFFE9
:101AB00000214FF40030FEF7F6FF25E0F0488442A5
:101AC00009D101218804FEF7EEFF00214FF48020A8
:101AD000FEF7E9FF18E0EB48844209D10121C80470
:101AE000FEF7E1FF00214FF40020FEF7DCFF0BE0E2
:101AF000E548844208D101210805FEF7D4FF002102
:101B00004FF48010FEF7CFFF10BD2DE9F04786B0EF
:101B100005460E460024A24600BFA1460027B08914
:101B200000B100BF2F462C8A4CF6FF700440F088AD
:101B300004432C82AC894EF6F3100440B0883189FE
:101B40000843718908430443AC81AC8A4FF6FF40D7
:101B50000440B0890443AC8201A8FEF710FFC648D8
:101B6000874202D1DDF810A001E0DDF80CA0A889C1
:101B700000F4004040B10AEBCA0000EB0A103168E3
:101B80004900B0FBF1F807E00AEBCA0000EB0A10CD
:101B900031688900B0FBF1F86420B8FBF0F0040173
:101BA0002009642101FB1089A88900F4004040B19C
:101BB000322000EBC900B0FBF1F000F00700044355
:101BC00008E0322000EB09106421B0FBF1F000F0D6
:101BD0000F0004432C8106B0BDE8F0874FF4165186
:101BE000016000218180C18001810C21418100219F
:101BF0008181704710B502460020108A4FF2FF0322
:101C000018400B884C8823438C882343CC8823437B
:101C10001843108210BD0021018041808180C18065
:101C2000704721B1828942F40052828104E08289A6
:101C30004DF6FF731A4082817047F0B503460024C9
:101C400000260025002040F66A17B94200D100BFE7
:101C50001846C1F3421401F01F06012707FA06F5E2
:101C6000012C01D10C3004E0022C01D1103000E035
:101C700014301AB107682F43076002E00768AF43CA
:101C80000760F0BD1AB1838A0B43838202E0838A26
:101C90008B4383827047028A4FF6F0731A400282A8
:101CA000028A0A430282704782894FF2FF731A4008
:101CB000828182890A438281704721B1828942F000
:101CC0000202828104E082894FF6FD731A4082810C
:101CD0007047028A4FF6DF731A400282028A0A4373
:101CE0000282704721B1028A42F48042028204E0FB
:101CF000028A4BF6FF731A4002827047C1F3080252
:101D00008280704701468888C0F308007047818947
:101D100041F0010181817047028BD2B20283028BB4
:101D200042EA012202837047028B02F47F4202835F
:101D3000028B0A430283704721B1828A42F020025B
:101D4000828204E0828A4FF6DF731A4082827047F3
:101D500021B1828A42F01002828204E0828A4FF628
:101D6000EF731A408282704721B1828A42F00802E2
:101D7000828204E0828A4FF6F7731A4082827047AB
:101D800021B1828942F40042828103E08289C2F358
:101D90000E028281704721B1828A42F400628282FF
:101DA00004E0828A4FF2FF731A4082827047828A6F
:101DB0004FF6FB731A408282828A0A4382827047FE
:101DC00021B1828A42F00202828204E0828A4FF6C6
:101DD000FD731A408282704702460020B1F5007FF1
:101DE00000D100BF13880B400BB1012000E00020A0
:101DF000704701F40072B2F5007F00D100BFCA4302
:101E00000280704770B502460024002300250020A0
:101E100040F66A16B14200D100BFC1F3421501F08D
:101E20001F03012606FA03F3012D02D196893340E0
:101E300006E0022D02D1168A334001E0968A334033
:101E40000C12012606FA04F41688344013B10CB1C2
:101E5000012000E0002070BD10B50022002340F6F4
:101E60006A14A14200D100BF0A1201249440A3B217
:101E7000DC43048010BD00000038014000440040F5
:101E800000480040004C00400050004010B500F0F9
:101E90008DFB022000F0ACFB00F0C8FB3B480021AA
:101EA000017010BD10B5002402213948FEF78BFBEC
:101EB0000446012C01D13549087014B9002033497A
:101EC000087010BD10B533A002F0BEFB10BD10B5F8
:101ED00033A002F0B9FB002001F097FF10BD10B550
:101EE00037A002F0B1FB012001F08FFF10BD10B54B
:101EF0003AA002F0A9FB00F0ACFB022001F085FF44
:101F000010BD00B589B0AFF23900AFF247014FF410
:101F100080633A4ACDE90010082103A800F00CFACA
:101F2000152203A9364802F0EFF9AFF23D00AFF2F7
:101F300051014FF48073164ACDE90010042103A823
:101F400000F0FAF9152203A92D48153002F0DCF94A
:101F50002B482C49C1F80100084600F016FA09B0D8
:101F600000BDFEF74EF9FFF791FFFFF7CAFF01F042
:101F700038FF25A002F068FB06E000F04FFBFFF7FA
:101F800091FF024802F050F8F7E700002800002017
:101F9000000801404B4559312050524553530A0027
:101FA0004B455931205052455353204C4F4E4720FA
:101FB0002C576966692052657365740A0000000039
:101FC0004B455932205052455353202C536F667461
:101FD000204150206D6F64650A0000004B45593266
:101FE000205052455353204C4F4E47202C4169728C
:101FF0004C696E6B206D6F64650A0000000C014037
:102000004C000020290000204D435520496E697482
:102010002053756363657373200A0000704700BF27
:10202000FEE700BFFEE700BFFEE700BFFEE7704728
:102030007047704700204FF0E0218861704710B56D
:1020400040F225511E48FFF7DDFE98B140F22551C0
:102050001B48FFF701FF1A48FFF754FE04462146CC
:102060001748FFF74BFE00BF80211548FFF7B4FE6D
:102070000028F9D010BD10B540F225511148FFF7E6
:10208000C1FE98B140F225510E48FFF7E5FE0D481C
:10209000FFF738FE044621460A48FFF72FFE00BF2F
:1020A00080210848FFF798FE0028F9D010BD10B530
:1020B0000120FEF7BFFD10B10120FEF7CBFD10BDE2
:1020C000003801400048004070B505460024002655
:1020D00000BF22E0D5F80120C4EBC40303EB4303A7
:1020E0001A44B2F8092091B2D5F80120C4EBC40318
:1020F00003EB43031A44D2F80500FEF764FA50B923
:10210000D5F80100C4EBC40101EB4101415C0120A1
:102110008840304386B2601CC4B2BC480078A042FC
:10212000D8DC304670BD70B5054600240026B8489E
:102130000078401CB6490870084600781E2804DB69
:10214000002008700120B3490870B24800780128C7
:1021500056D10020AF4908702846FFF7B5FF044666
:10216000AD48007830B101280BD0022819D00328DF
:1021700045D13CE024B1A94804800120A64908705B
:102180003DE0A6480088844207D10220A249087099
:10219000A248008840F4805602E000209E49087062
:1021A0002DE09E48008884420AD000209A49087099
:1021B0009B4908809948008840F40056304670BD1D
:1021C00096480088844211D195480088401C944963
:1021D000088008460088642808DB00200880032067
:1021E0008D49087044F400463046E8E707E08B4824
:1021F0000088844202D000208749087000BF00BFD9
:102200000020DCE770B50546002400262846FFF7CD
:102210008AFF064606B970BD06F4005028B30024B4
:1022200020E0D5F80100C4EBC40101EB4101415CA1
:1022300001208840304098B1D5F80100C4EBC401BA
:1022400001EB41010844D0F80D0048B1D5F8011068
:10225000C4EBC40202EB42021144D1F80D008047E6
:10226000601CC4B22878A042DBDC06F4004028B32E
:10227000002420E0D5F80100C4EBC40101EB4101CA
:10228000415C01208840304098B1D5F80100C4EB92
:10229000C40101EB41010844D0F8110048B1D5F860
:1022A0000110C4EBC40202EB42021144D1F8110048
:1022B0008047601CC4B22878A042DBDC00BFAAE7DC
:1022C00010B501218807FFF7C8FB30B1012188074D
:1022D000FFF7D4FB4D48FFF795FF10BD7FB541F6E2
:1022E0001F45092401210846FEF7C3FBADF808503D
:1022F000ADF804400020ADF80A00ADF8060001A9D1
:10230000A007FEF785FD012211469007FFF7F7F8B9
:102310001C208DF8000000208DF8010002208DF8AF
:10232000020001208DF803006846FDF7F0FF01214F
:102330008807FFF7C9F87FBD2DE9F04387B007464E
:102340000C4615461E46DDE90E89CDF80540CDF850
:102350000950CDF80D6033480078401C40B2314937
:102360000870C0B28DF80400CDF81590CDF811803A
:102370002D480078401C2C490870152201A93846C8
:1023800001F0C2FF07B0BDE8F08338B50446002570
:1023900004B938BD24480078207020780C2801DD6D
:1023A0000C20207000252AE054F8011FC5EBC5025F
:1023B00002EB42021144D1F801000121FEF74CFB6F
:1023C00003208DF8020048208DF803002068C5EB3B
:1023D000C50101EB41010844B0F8090080B2ADF835
:1023E000000054F80119C5EBC50202EB420211448A
:1023F000D1F805006946FEF753F8681CC5B220788D
:10240000A842D1DCFFF76AFF00BFC2E72900002025
:102410002E00002030000020310000203400002079
:1024200032000020360000202F00002008B50121D6
:102430000420FEF711FB01210846FEF70DFB0121E8
:102440008803FEF709FB4FF40070ADF80000182078
:102450008DF8030003208DF8020069465F48FEF7FF
:102460001FF84FF48060ADF8000004208DF80300E1
:1024700069465A48FEF714F801211020FEF7ECFADD
:1024800001218804FEF7F5FA01210846FEF7E4FA77
:1024900001215348FEF7D5F84FF48060ADF80000F5
:1024A00018208DF8030003208DF8020069464D487E
:1024B000FDF7F6FF4FF40060ADF8000004208DF842
:1024C000030069464748FDF7EBFF08BD1FB54FF411
:1024D000E13000900020ADF80400ADF80600ADF842
:1024E0000800ADF80C000C20ADF80A0069463E4823
:1024F000FFF70BFB012240F225513B48FFF79DFB04
:1025000001213948FFF78DFB40213748FFF771FC67
:102510004FF4E13000900020ADF80400ADF8060063
:10252000ADF80800ADF80C000C20ADF80A006946C3
:102530002E48FFF7EAFA012240F225512B48FFF717
:102540007CFB01212948FFF76CFB40212748FFF75E
:1025500050FC1FBD08B525208DF8000000208DF827
:1025600001008DF8020001208DF803006846FDF798
:10257000CEFE27208DF8000000208DF801000120FC
:102580008DF802008DF803006846FDF7C0FE08BD17
:1025900010B5044621461448FFF7B0FB00BF802168
:1025A0001148FFF719FC0028F9D010BD10B5FFF74E
:1025B0003DFFFFF78BFFFFF7CDFF10BD70B5044661
:1025C0000D46E1B20848FFF799FB00BF802106489D
:1025D000FFF702FC0028F9D0204670BD000801403A
:1025E0001000140000100140003801400048004075
:1025F00070B50446042540F27120604386B245F26E
:102600005550FEF79BF82846FEF79BF83046FEF73C
:102610009BF8FEF79CF8FEF79FF870BD4AF6AA20DB
:1026200001490860704700000030004008B50121F2
:102630000420FEF711FA0220ADF8000010208DF8FA
:10264000030003208DF8020069460848FDF728FFC3
:1026500008BD10B502210548FDF7CFFF10BD10B52C
:1026600002210248FDF7CBFF10BD00000008014029
:102670002DE9F04704460D46914600262F46A84610
:1026800004B11DB94FF0FF30BDE8F087002634E0FB
:10269000601C805D10282CD2DFE800F01A1B1C2B78
:1026A0002B1D1E1F202B2B2B2B21270838789249FE
:1026B00008700846017891A001F0C6FF8E480078A6
:1026C000012802D1FFF7C5FF01E0FFF7C8FF11E0C5
:1026D00010E00FE00EE00DE00CE00BE00AE098F8EF
:1026E00000108BA001F0B0FF04E08CA001F0ACFF63
:1026F00000E000BF00BF701CC6B22078B042C7DC4B
:102700000020C1E7012080F3138800BF00BF884884
:10271000006800F4E06087490843001D84490860B0
:10272000BFF3408F00BF00BFFEE710B50121824814
:10273000FFF793F928B101217F48FFF79FF900F0D7
:1027400036FA10BD7FB541F61F450924012102204C
:10275000FEF78FF9ADF80850ADF804400020ADF851
:102760000A00ADF8060001A97348FEF751FB0122EB
:1027700011467148FEF7C3FE1D208DF800000020B1
:102780008DF8010002208DF8020001208DF8030071
:102790006846FDF7BCFD01216748FEF795FE7FBD49
:1027A00008B50020009040F225516448FFF72AFB4D
:1027B00068B140F225516148FFF74EFB5F48FFF7D3
:1027C000A1FAC0B200900121684600F0D6F908BD18
:1027D0002DE9F04105460E46002415B9601EBDE8FE
:1027E000F08100F0ECF907463246394654A001F07A
:1027F0002BFF002423E0295D5048FFF77FFA00BF3C
:1028000080214E48FFF7E8FA0028F9D0295D51A051
:1028100001F01AFF022C11D3285DFF280ED155219B
:102820004648FFF76BFA00BF80214448FFF7D4FA0F
:102830000028F9D0552147A001F006FF641CB442DE
:10284000D9D346A001F000FF3046C8E700B587B0F5
:1028500001210420FEF700F901214804FEF709F9DF
:1028600001210846FEF7F8F80420ADF818001820FA
:102870008DF81B0003208DF81A0006A93848FDF7D3
:102880000FFE0820ADF8180004208DF81B0006A9E3
:102890003348FDF705FE4FF4165002900020ADF8C6
:1028A0000C00ADF80E00ADF81000ADF814000C20CF
:1028B000ADF8120002A92148FFF727F9012240F2E2
:1028C00025511E48FFF7B9F901211C48FFF7A9F966
:1028D00040211A48FFF78DFA26208DF804000020C9
:1028E0008DF8050001208DF806008DF8070001A87D
:1028F000FDF70DFD07B000BD280000204576743AB5
:10290000204556454E545F4C4544202564200A001E
:10291000525353492025640A000000005452414E8E
:1029200053504152454E545F44415441200A0000E7
:102930000CED00E00000FA050004004000440040F7
:102940004D435532576946695B2534643A253464F2
:102950005D3A200025303278200000000A00000097
:102960000008014010B504461CB9FAA001F06CFE45
:1029700010BDE0686060E068A06000BFF8E710B5D7
:1029800004461CB9F3A001F05FFE10BD0020E0601A
:102990006060A060206000BFF7E710B504462CB966
:1029A000ECA001F051FE4FF0FF3010BD2068FCE7B5
:1029B00010B504462CB9E7A001F046FE4FF0FF30F9
:1029C00010BDD4E90101884201D10020F8E7D4E923
:1029D0000101884203D2D4E90110401AF0E72046F1
:1029E000FFF7DBFFD4E90112891A401AE8E770B556
:1029F00004462CB9D7A001F027FE4FF0FF3070BD80
:102A00002046FFF7CAFF05462046FFF7D1FF281AE8
:102A1000F5E72DE9F04104460F46164600252CB98E
:102A2000CCA001F011FE681EBDE8F0812FB9D0A046
:102A300001F00AFE4FF0FF30F6E7D4E901018842C9
:102A400014D22046FFF7B4FFB04201D9304602E06D
:102A50002046FFF7ADFF05462A463846616801F07B
:102A600053FC6068284460602846DDE72046FFF795
:102A700094FFE2686168891A401AB0420AD9354663
:102A80002A463846616801F03FFC6068284460606F
:102A90002846C9E72046FFF780FFE2686168891A87
:102AA000451A2A463846616801F02EFCE0686060ED
:102AB000721B79192046FFF7ACFF05442846B3E79F
:102AC0002DE9F04104460F46154600262CB9AFA06B
:102AD00001F0BAFD701EBDE8F0812FB9B1A001F080
:102AE000B3FD4FF0FF30F6E72046FFF780FFA84226
:102AF0000AD82046FFF77BFF80464146AFA001F091
:102B0000A3FD4FF0FF30E6E7D4E9010188422AD85F
:102B10002046FFF742FFD4E90212891A461AB5424D
:102B200013D82A463946A06801F0EEFBA068284475
:102B3000A0602046FFF731FFE1680844A1688842A1
:102B400001D1E068A0602846C5E732463946A06852
:102B500001F0DAFBE068A060AA1BB9192046FFF774
:102B6000AFFF3044B7E72A463946A06801F0CCFBF6
:102B7000A0682844A0602846ADE770B504460D461D
:102B8000002624B993A001F05FFD701E70BD2A4697
:102B900021469948FFF794FF0646AE4205D097A01C
:102BA00001F052FD4FF0FF30F0E73046EEE79A4873
:102BB000D0F87507401C9849C1F8750770479648CA
:102BC000D0F8750770472DE9F04104460D460027FF
:102BD000002604B135B9294690A001F035FD00204A
:102BE000BDE8F081022603E0A05D3844C7B2761C40
:102BF000681EB042F8D83846F2E701B581B06946A0
:102C000001AA5078087010784870BDF800000CBD1B
:102C10000146080601F47F4240EA022001F47F02E7
:102C200040EA122040EA116070472DE9F041044665
:102C30000E4600250027A8462CB986A001F004FD09
:102C4000681EBDE8F08100250AE0675D701B401E2C
:102C500014F8008004F80580701B401E27546D1C7A
:102C6000B5EB560FF1D30020EBE710B5034600207B
:102C7000541AB4FBF3F010BD10B50346002002FB5C
:102C8000031010BD2DE9F04704460E4615460027F7
:102C90003146284601F0AEFB8146214601F0E2FBB9
:102CA000804601F022FC07463846BDE8F0872DE952
:102CB000F04704460E4615460027284601F010FC52
:102CC0008146214601F09CFB8046314601F040FBE5
:102CD00007463846BDE8F087024612B102F0070009
:102CE00028B9082901D8002070470120FCE702F02C
:102CF0000700C0F10800884201D30020F4E701205A
:102D0000F2E72DE9FC5F05460C46164699460C9FF6
:102D10004FF0000AD346002001908046B9F1000F21
:102D200000D037B956A001F08FFC4FF0FF30BDE85E
:102D3000FC9F3A464946684601F0E6FA012F07D95A
:102D400039466846FFF771FFB0F1FF3F00D1AFE0B1
:102D5000B4E000004552524F523A20696E707574CB
:102D6000207262206973204E554C4C0A000000000E
:102D70004552524F523A20696E70757420646174E6
:102D800061206973204E554C4C0A00004552524F49
:102D9000523A20726220697320656D707479200A3E
:102DA000000000004552524F523A20646174612085
:102DB000697320656D707479200A00004552524F86
:102DC000523A206E6F206D656D6F727920256420F8
:102DD0000A0000004552524F523A2067697A5075F6
:102DE00074446174612062756620697320656D703A
:102DF0007479200A00000000DC0B00204552524F7D
:102E0000523A204661696C656420746F2072625783
:102E100072697465200A0000780000204552524F04
:102E2000523A2067697A50726F746F636F6C537592
:102E30006D202C2062756620697320656D70747931
:102E4000206F72206C656E206572726F722025642F
:102E5000200A000067697A427974654F726465726E
:102E600045786368616E6765204572726F72202CC9
:102E700020496C6C6567616C20506172616D0A005D
:102E800067697A4465636F6D7072657373696F6E9D
:102E900056616C7565204572726F72202C20496CEA
:102EA0006C6567616C20506172616D0A0000000002
:102EB000F9A001F0C9FB4FF0FF3038E7314620465A
:102EC000FFF70AFF8246BAF1000F0CD11DF805008A
:102ED00004F007010841C6F10802FF211141084032
:102EE00040EA080821E0BAF1010F1ED1681C1DF864
:102EF000000004F00701C1F10801711AC1F10802D4
:102F0000FF21114100EA010B1DF8050004F0070143
:102F10000841019004F00700C0F108010BFA01F02C
:102F200040EA0808019848EA00084046FFE62DE913
:102F3000F05F05460E4690461C460A9F4FF0000A79
:102F4000D346D14634B9E1A001F07EFB4FF0FF300B
:102F5000BDE8F09F41463046FFF7BEFE8146B9F11D
:102F6000000F07D1605D06F0070107FA01F1084381
:102F700060551EE0B9F1010F1BD1F8B206F0070150
:102F8000C1F1080140FA01FA06F00700C0F108019A
:102F9000FF20084100EA070B681C205C40EA0A0099
:102FA000691C6054605D06F007010BFA01F10843EB
:102FB00060550020CCE72DE9FE4F80460E461746AF
:102FC0004FF0000B002002908146824600253446D7
:102FD0000090B8F1000F01D006B137B9C5A001F0DB
:102FE00033FB4FF0FF30BDE8FE8F4046FFF7E0FCBB
:102FF00000F0FF0ABAF1000F02D14FF0FF30F2E704
:103000004FF0000960E0012201A94046FFF701FDF1
:1030100000F0FF0BBBF1000F52D0C2480078FF2830
:103020001FD19DF80400FF281BD1BF48007848B984
:10303000FF20207060700220BC4908800120BA493E
:10304000087034E0B9480088042830DDB7480088AB
:10305000A8422CD0FF20207060700220B349088065
:1030600025E0B0480078FF2803D19DF804005528DA
:103070001DD0AD480078012819D19DF80400AB4956
:1030800009886054A9480088401CA849088008465F
:10309000008804280BDD0094009C6088FFF7ADFDDC
:1030A000001D85B2A1480088A84200D10EE09DF81D
:1030B00004009C4908709E480078401C9C49087098
:1030C00009F1010000F0FF09D1459CDB00BF9748E2
:1030D0000088042823DD95480088A8421FD1934822
:1030E00001882046FFF76FFD029090480088401E3F
:1030F000215C029881420FD12A462146304601F0D8
:1031000003F93D8000208849087088490880884973
:1031100008708449087066E76FF0010063E70120DA
:1031200061E7F8B505460C4616460DB104B12EB957
:1031300080A001F089FA4FF0FF30F8BD287800F048
:10314000010098B10F212278601C81542078401C26
:10315000207001206B1C0246002100900846FFF7FA
:10316000D0FD08B1012000E0002030700020E4E72D
:1031700070B504460D46002604B12DB978A001F0C3
:1031800063FA4FF0FF3070BD28782178884203D071
:103190007DA001F059FA01263046F4E738B505461E
:1031A0000C4605B12CB97DA001F04EFA4FF0FF306E
:1031B00038BD00202070287823460122002100908D
:1031C0000846FFF7B4FE01212046FFF72EFD002040
:1031D000EEE710B504462CB97CA001F035FA4FF0AB
:1031E000FF3010BD002020606060FF202070607004
:1031F0000020F6E770B504460D4634B9AFF25C40E6
:1032000001F022FA4FF0FF3070BD40F2BE317A4833
:1032100001F093F82A4621467748801C01F074F8A3
:103220007648A0F8355B012180F87E17FFF7C7FCD0
:103230007249C1F8370B0020E6E710B500246F484B
:1032400090F87E0700B910BD6DA001F0FDF96B4844
:10325000B0F8351B00F27F70FFF7BAFAC4B26748C6
:10326000B0F8350BA04202D06DA001F0EDF9FFF7E8
:10327000A6FC6249C1F8370B00BFE4E770B504460D
:103280005D4DAD1C34B9AFF2E44001F0DDF94FF013
:10329000FF3070BDD2E0000067697A4465636F6DEE
:1032A0007072657373696F6E56616C7565206769BE
:1032B0007A427974654F7264657245786368616EAD
:1032C0006765204572726F72200A000067697A4351
:1032D0006F6D707265737356616C7565204572729F
:1032E0006F72202C20496C6C6567616C2050617294
:1032F000616D0A0067697A50726F746F636F6C4713
:1033000065744F6E655061636B6574204572726FB2
:1033100072202C20496C6C6567616C205061726171
:103320006D0A00003C000020380000203A00002018
:103330003D00002067697A44617461506F696E7462
:10334000324576656E74204572726F72202C20496A
:103350006C6C6567616C20506172616D0A000000E1
:1033600067697A436865636B5265706F7274204554
:1033700072726F72202C20496C6C6567616C2050F2
:103380006172616D0A00000076616C75654C4544A0
:10339000204368616E6765640A00000067697A44CB
:1033A000617461506F696E7473325265706F7274BC
:1033B00044617461204572726F72202C20496C6CDC
:1033C0006567616C20506172616D0A004552524F11
:1033D000523A2067697A50726F746F636F6C4865F8
:1033E0006164496E69742068656164206973206551
:1033F0006D707479200A0000F50700207800002025
:103400005761726E696E673A2074696D656F757485
:103410002C20726573656E642064617461200A00FB
:103420004552524F523A20726573656E6420646152
:103430007461206572726F720A0000002879401C66
:103440002179884204D140F2BE31F84800F075FF7E
:10345000002070BD3EB50446002524B9F4A001F05B
:10346000F3F8681E3EBD20680090606801909DF8EA
:103470000400401CC0B28DF804000520FFF7BDFB1E
:10348000ADF8020009216846FFF79DFB8DF80800A2
:1034900009216846FFF79CF90546002D03DA294605
:1034A000EEA001F0D1F82846DCE710B5F34890F81B
:1034B0007E07012829D1F14890F87D0702281FDCFA
:1034C000FFF77DFBED49D1F8371B401A40F6B831C4
:1034D00088421AD9FFF773FB0446E84890F87D3715
:1034E000D0F8372B2146E6A001F0AEF8FFF7A5FE95
:1034F000E24890F87D07401CE04981F87D0704E030
:1035000040F2BE31C94800F018FF10BD30B595B08B
:10351000044600252CB9E4A001F096F8681E15B009
:1035200030BD6846FFF755FE02208DF80400607933
:103530008DF80500E8A103C9CDE90201E9A103C99D
:10354000CDE90401EAA103C9CDE90801EBA103C952
:10355000CDE906012022ECA10AA800F0D5FEF3A0D7
:103560000168CDF84A104068CDF84E000020ADF853
:1035700048004F20FFF741FBADF802005321684699
:10358000FFF721FB8DF8520053216846FFF720F921
:103590000546002D03DA2946B0A001F055F828466B
:1035A000BDE7FEB504460E46002524B9E2A001F0B1
:1035B0004BF8681EFEBD6846FFF70BFE12208DF823
:1035C000040060798DF805000620FFF716FBADF8C2
:1035D00002008DF808600A216846FFF7F4FA8DF8BA
:1035E00009000A216846FFF7F3F80546002D03DAC3
:1035F00029469AA001F028F82846DBE710B5FFF726
:10360000DEFA044600BFFFF7DAFA001BB0F5167FBA
:10361000F9D9FFF777F810BD10B504462CB9D1A041
:1036200001F012F84FF0FF3010BD2089FFF7E5FAE6
:103630002081D8480078C0F38000217AC1F380014E
:1036400088425AD0207AC0F3800000282BD0207AFC
:1036500000F0010080B10021884890F84C2B00F662
:103660004D308154854890F84C0B401C834981F8BB
:103670004C0BC9A000F0E8FF207AC0F340000028FE
:103680003BD001217D4890F84C2B00F64D30815401
:103690007A4890F84C0B401C784981F84C0BC6A036
:1036A00000F0D2FF29E0207A00F0010080B1002173
:1036B000724890F84C2B00F64D3081546F4890F8CA
:1036C0004C0B401C6D4981F84C0BB3A000F0BCFFC3
:1036D000207AC0F3400080B10221684890F84C2B5A
:1036E00000F64D308154654890F84C0B401C6349FE
:1036F00081F84C0BB7A000F0A7FFA6480078C0F3F4
:10370000C000217AC1F3C00188422ED0207AC108BE
:10371000A048007861F3C3009E490870207AC0F386
:10372000C00088B10321554890F84C2B00F64D306D
:103730008154524890F84C0B401C504981F84C0B76
:10374000ABA000F081FF10E004214C4890F84C2B16
:1037500000F64D308154494890F84C0B401C4749C5
:1037600081F84C0BAAA000F06FFF8A480078C0F3E4
:103770000010217AC1F3001188422ED0207A01096D
:103780008448007861F3041082490870207AC0F3FD
:10379000001088B10521394890F84C2B00F64D30C7
:1037A0008154364890F84C0B401C344981F84C0B3E
:1037B0009FA000F049FF10E00621304890F84C2B04
:1037C00000F64D3081542D4890F84C0B401C2B498D
:1037D00081F84C0B9EA000F037FF6E480078C0F3D4
:1037E0004010217AC1F3401188421CD0207A41094F
:1037F0006848007861F3451066490870207AC0F384
:10380000401088B107211D4890F84C2B00F64D3030
:1038100081541A4890F84C0B401C184981F84C0B05
:1038200094A000F011FF44E132E10000F507002010
:103830004552524F523A2067697A50726F746F63E3
:103840006F6C436F6D6D6F6E41636B20646174616B
:1038500020697320656D707479200A004552524FBB
:10386000523A2075617274207772697465206572AE
:10387000726F72202564200A00000000780000208A
:103880005761726E696E673A67697A50726F746FCA
:10389000636F6C526573656E644461746120256466
:1038A0002025642025640A0067697A50726F746F5E
:1038B000636F6C476574446576696365496E666FCE
:1038C000204572726F72202C20496C6C6567616CA8
:1038D00020506172616D0A00303030303030303449
:1038E0000000000030303030303030320000000056
:1038F000303330313031303100000000303330317E
:1039000030313030000000003562326362363932C7
:103910006338643634333438386539626533343764
:1039200062326637336139340000000030303030A5
:10393000303030300000000067697A50726F746F69
:10394000636F6C4572726F72436D64204572726F63
:1039500072202C20496C6C6567616C20506172612B
:103960006D0A000067697A50726F746F636F6C4DF7
:103970006F64756C65537461747573204572726FF2
:1039800072202C20496C6C6567616C2050617261FB
:103990006D0A0000440000204F6E426F617264693E
:1039A0006E673A20536F66744150206F72205765DE
:1039B00062206D6F64650A004F6E426F61726469C8
:1039C0006E673A204169724C696E6B206D6F646559
:1039D0000A0000004F6E426F617264696E673A20A0
:1039E00053746174696F6E206D6F64650A00000026
:1039F00057694669207374617475733A20696E2043
:103A000062696E64696E67206D6F64650A0000000C
:103A100057694669207374617475733A206F7574C1
:103A20002062696E64696E67206D6F64650A0000CC
:103A300057694669207374617475733A20636F6EB9
:103A40006E656374656420726F757465720A000038
:103A500057694669207374617475733A2064697399
:103A6000636F6E6E656374656420726F75746572E2
:103A70000A00000057694669207374617475733ACF
:103A800020636F6E6E6563746564206D326D0A002D
:103A90000821F84890F84C2B00F64D308154F54839
:103AA00090F84C0B401CF34981F84C0BF2A000F04D
:103AB000CBFDF9484078C0F3C001607AC0F3C00084
:103AC00081422ED0607AC108F348407861F3C30088
:103AD000F1494870607AC0F3C00088B10B21E54815
:103AE00090F84C2B00F64D308154E24890F84C0B86
:103AF000401CE04981F84C0BE8A000F0A5FD10E067
:103B00000C21DC4890F84C2B00F64D308154D948FC
:103B100090F84C0B401CD74981F84C0BE6A000F004
:103B200093FDDD484078C0F30011607AC0F30010C7
:103B300081422ED0607A0109D748407861F30410A1
:103B4000D5494870607AC0F3001088B10921C9488E
:103B500090F84C2B00F64D308154C64890F84C0B31
:103B6000401CC44981F84C0BDBA000F06DFD10E057
:103B70000A21C04890F84C2B00F64D308154BD48C6
:103B800090F84C0B401CBB4981F84C0BD9A000F0BD
:103B90005BFD0D21B74890F84C2B00F64D30815459
:103BA000B44890F84C0B401CB24981F84C0B607A39
:103BB00000F0070081F8600B084690F8601BD4A065
:103BC00000F042FD0220AB49087000202CE52DE9F1
:103BD000F04786B00446884616460027BA46B946DE
:103BE000254614B1B8F1000F07D1CDA000F02CFD8F
:103BF0004FF0FF3006B0BDE8F087CEB96846FFF75A
:103C0000E8FA2079401CC0B28DF8040060798DF884
:103C100005000520FEF7F1FFADF802000921684616
:103C2000FEF7D1FF8DF80800EA464FF0090925E0BC
:103C300003A8FFF7CEFA2879401CC0B28DF8100017
:103C400068798DF81100B11D88B2FEF7D6FFADF886
:103C50000E00287A401CC0B28DF81400324641464E
:103C60000DF1150000F050FB0B2103A8FEF7ABFF90
:103C70008DF816000DF10C0A4FF00B09494650461D
:103C8000FEF7A6FD0746002F04DA4A463946B0483B
:103C900000F0DAFC3846ADE7FEB505460E4617469D
:103CA000002426B9ABA000F0CFFC601EFEBD684624
:103CB000FFF78FFA05208DF804006E4890F8711711
:103CC000D0F87107401C6B4AC2F87107C8B28DF872
:103CD00005008DF808500720FEF78FFFADF80200B1
:103CE0003A4631460DF1090000F00EFB0B21684603
:103CF000FEF769FF8DF80A000B216846FEF768FDA4
:103D00000446002C04DA2146AFF2B04000F09CFCDF
:103D10000B216846FFF76EFAFEF751FF5549C1F8CF
:103D200079072046C2E72DE9F04704460E461746BC
:103D30001D46A0464FF0000998F808900CB107B155
:103D400035B98EA000F080FC4FF0FF30BDE8F08761
:103D50001121964800F0F1FAB9F1010F06D0B9F13E
:103D6000020F11D0B9F1050F37D119E08F4A223275
:103D70008E4904F10900FFF7D4F901203D4908708C
:103D800000270020286029E088492431481EFFF7D9
:103D900005FA384890F85F0B3870012028601DE064
:103DA000A6F10A0204F10901814800F0ADFAA6F17A
:103DB0000A003049C1F86D070E212E4890F83B2BC0
:103DC00000F63C3081542B4890F83B0B401C2949AD
:103DD00081F83B0B0320087000E000BF00BF00200B
:103DE000B4E710B5FEF7AEFCFEF730FD40F26C70A4
:103DF000704908607048C8600846FEF7B3FD40F699
:103E000061311C4800F099FA10BD30B587B0044606
:103E100000256CBB01A8FFF7DCF90B208DF808002A
:103E2000144890F87117D0F87107401C114AC2F875
:103E30007107C8B28DF809000520FEF7DEFEADF867
:103E40000600092101A8FEF7BEFE8DF80C0009212D
:103E500001A8FEF7BDFC0546002D04DA2946AFF2A5
:103E6000046000F0F1FB092101A8FFF7C3F9D8E0D5
:103E7000A4E000007800002057694669207374614F
:103E80007475733A20646973636F6E6E65637465ED
:103E900064206D326D0A00004400002057694669B5
:103EA000207374617475733A2061707020636F6E53
:103EB0006E6563740A000000576946692073746177
:103EC0007475733A206E6F2061707020636F6E6E30
:103ED0006563740A000000005769466920737461C5
:103EE0007475733A20696E2074657374206D6F6405
:103EF000650A000057694669207374617475733AE6
:103F0000206F75742074657374206D6F64650A008A
:103F100052535349206973202564200A0000000091
:103F200067697A50726F746F636F6C4973737565EC
:103F3000644461746141636B204572726F72202C1E
:103F400020496C6C6567616C20506172616D0A007C
:103F5000EC4A000867697A5265706F727444617444
:103F600061204572726F72202C20496C6C6567610C
:103F70006C20506172616D0A0000000067697A5020
:103F8000726F746F636F6C49737375656450726F91
:103F900063657373204572726F72202C20496C6CBC
:103FA0006567616C20506172616D0A00B30B00207F
:103FB0002F040020DC0B0020EC0B0020012C01D092
:103FC000022C2ED104A8FFF704F909208DF8140063
:103FD000954890F87117D0F87107401C924AC2F8C2
:103FE0007107C8B28DF815008DF818400620FEF74D
:103FF00004FEADF812000A2104A8FEF7E4FD8DF8D6
:1040000019000A2104A8FEF7E3FB0546002D04DA97
:104010002946AFF2B87000F017FB0A2104A8FFF799
:10402000E9F8284607B030BD2DE9F041ADF5EF6D58
:1040300004460025002600200290019000273CB98C
:104040007AA000F001FB681E0DF5EF6DBDE8F08170
:10405000FFF72BFA02AA7449491C7E48FEF7ABFF12
:104060000546002D65D17CA000F0EEFAFEF7A7FD15
:104070008046BDF8082041467CA000F0E5FA002605
:1040800007E06948401C815D7DA000F0DDFA701CEE
:1040900086B2BDF808008642F3DBAFF2E81000F00C
:1040A000D3FA614F7F1C3879122839D2DFE800F04B
:1040B0003809380D3838281D383829382A21382E43
:1040C00038373846FFF722FA32E001AB03AABDF8D1
:1040D00008105548401CFFF726FE054625B903A9E0
:1040E0003846019AFFF773FD22E03846FFF7B2F930
:1040F0001EE03846FFF7AEF93846FFF78DFA17E0B5
:1041000000BF00BF3846FFF7B9F811E03846FFF7A7
:10411000A1F95DA000F098FAFFF770FA08E007E057
:1041200002213846FFF73DFA5CA000F08DFA00BF8F
:104130000EE015F1020F0BD13B4F7F1C01213846D9
:10414000FFF72FFA5BA000F07FFA6FF001007BE72A
:104150003548007801280ED100203349087001222B
:1041600001F65D31A1F12200FEF782FA11215848D3
:1041700000F0E3F822E02C48007802280FD100205C
:1041800029490870012201F53661A1F11400FEF7FA
:104190006FFA11214E48113000F0CFF80EE022489E
:1041A000007803280AD100201F4908700846D0F87B
:1041B0006D2700F2B7314648FEF75AFA44492331D9
:1041C0002046FEF7D5FF012811D142A000F03CFAAD
:1041D0003F4924312046FEF7E1FF01223C492431CA
:1041E0000420FFF759FD1048217880F85E1BFEF788
:1041F000E6FC0D49D1F87917401A3C49884211D3A1
:104200003BA000F021FA324924312046FEF7C6FFD8
:1042100001222F4924310420FFF73EFD0248217876
:1042200080F85E1B00200FE77800002047697A774E
:1042300069747348616E646C65204572726F722098
:104240002C20496C6C6567616C20506172616D0A4D
:1042500000000000DC0B0020476574204F6E6520D5
:104260005061636B6574210A00000000576946695C
:10427000324D43555B2534643A2534645D3A200061
:1042800025303278200000007265706F72743A4DEC
:104290004355207265626F6F74210A004552524F78
:1042A000523A20636D6420636F6465206572726F9B
:1042B00072210A004552524F523A20636865636B7F
:1042C0002073756D206572726F72210A0000000004
:1042D000B30B00206368616E6765642C20726570A3
:1042E0006F727420646174610A000000C0270900C5
:1042F000496E666F3A2036303053207265706F72A7
:104300007420646174610A0040EA01039B0703D0D2
:1043100009E008C9121F08C0042AFAD203E011F804
:10432000013B00F8013B521EF9D27047D2B201E0C6
:1043300000F8012B491EFBD270470022F6E710B5AA
:1043400013460A4604461946FFF7F0FF204610BD03
:10435000F0B480EA0102D40F4200B2EB410F02D266
:104360000246084611464A0042D0C30DDDB2C1F3F1
:10437000C752AD1A202D35DAC1F3160141F40002FF
:1043800004B15242C5F1200602FA06F12A41104456
:10439000B3EBD05F23D0C4B1012DA0EBC35009DC37
:1043A000F0BC4FF0004202EAC352DBB200F500005D
:1043B00000F0E9B8400000F1807000EBC350A0F1BC
:1043C000807040EAD170490009E0490841EAC071B3
:1043D000A0EBC35000F50000400800EBC350F0BC58
:1043E00000F0C8B86142012202EB4101001BF6E770
:1043F000F0BC704781F00041AAE780F00040A7E7D9
:1044000080EA010210B502F00043400022D04A00C9
:104410001FD0010E01EB1261C0F35600C2F3560229
:1044200040F4000042F40002A0FB022000047F39A7
:10443000140400D0401C50EA124001D44000491E30
:10444000C2B20C0604EBD010401C4008802A02D0F7
:1044500003E0002010BD20F00100002900DA002058
:10446000184310BD30B480EA010202F0004530F07C
:10447000004221F0004013D090B1C30DD40DC2F31F
:104480001601C0F31600E41A41F4000140F40002E2
:104490007D34914201D3641C00E04900002C02DA13
:1044A00030BC002070474FF400000023914201D33C
:1044B000891A034340084FEA4101F7D151B19142B3
:1044C00002D14FF0004105E002D24FF0010101E0BE
:1044D0006FF0010103EBC450284430BC00F04AB82F
:1044E00096230022114600F04EB820F00040C10D86
:1044F000C0F3160040F400007F2901DA0020704765
:10450000962903DCC1F19601C8407047963988406E
:1045100070472DE9F05F0546002092469B4688468D
:104520000646814640241BE028464146474622462F
:1045300000F079F853465A46C01A914110D31146FB
:104540001846224600F060F82D1A67EB01084F4626
:1045500022460120002100F057F817EB00094E41D8
:10456000201EA4F10104DFDC484631462A464346BA
:10457000BDE8F09F0029A8BF7047401C490008BF54
:1045800020F00100704710B4B0FA80FC00FA0CF083
:1045900050EA010404BF10BC704749B1CCF12004BB
:1045A00021FA04F411FA0CF118BF01212143084348
:1045B000A3EB0C01CB1D4FEA00614FEA102042BF74
:1045C000002010BC704700EBC35010440029A4BF6A
:1045D00010BC7047401C490008BF20F0010010BC0F
:1045E00070470000064C074D06E0E06840F001030C
:1045F00094E8070098471034AC42F6D3FBF77AFDF5
:10460000304B0008504B0008202A04DB203A00FA07
:1046100002F1002070479140C2F1200320FA03F319
:10462000194390407047202A04DB203A21FA02F017
:104630000021704721FA02F3D040C2F120029140DC
:1046400008431946704700000FB4054B10B503A985
:10465000044A029800F018F810BC5DF814FB000042
:10466000BD2500084800002002E008C8121F08C14C
:10467000002AFAD170477047002001E001C1121FE3
:10468000002AFBD1704700002DE9FF4F8DB00F4687
:104690000546002606E025280BD0DDE90F129047DD
:1046A0006D1C761C28780028F5D111B03046BDE885
:1046B000F08F0024A246A1460122EC4900E0044309
:1046C00015F8013F203B02FA03F00842F7D12878A1
:1046D0002A2810D06FF02F022878A0F13001092984
:1046E00014D80AEB8A0102EB410144F0020400EB0A
:1046F000010A6D1CF0E701CF5FEA000A03D544F41C
:104700000054CAF1000A44F002046D1C28782E28D7
:1047100017D115F8010F44F004042A280ED06FF0C9
:104720002F022878A0F1300109290AD809EB890164
:1047300002EB410100EB01096D1CF2E757F8049B05
:104740006D1C28786C280FD006DC4C2817D0682800
:104750000DD06A2814D104E0742810D07A280FD123
:104760000DE044F400140AE044F4801401E044F441
:1047700040146978814202D104F580146D1C6D1CCF
:104780002A786E2A1FD00CDC632A31D004DC002A80
:104790008BD0582A11D1A3E0642A68D0692A0CD1A1
:1047A00065E0732A2ED004DC6F2A73D0702A04D1FE
:1047B0009BE0752A6FD0782A6ED01046DDE90F1283
:1047C0009047761C50E1C4F30250022806D003281B
:1047D00009D0042801CF09D0066045E101CFF117C7
:1047E000C0E9006140E101CF06803DE106703BE198
:1047F00017F8040B8DF8000000208DF80100EB463F
:10480000012003E057F804BB4FF0FF3061074FF081
:10481000000102D40DE008F10101884649450FDA94
:104820008045F8DB1BF808100029F4D108E008F1F6
:10483000010188468142FADB1BF808100029F6D1F5
:10484000DDE90F23AAEB08008146214600F036F986
:10485000304400EB080604E0DDE90F121BF8010B01
:104860009047B8F10108F7D221464846F7E00A21FF
:10487000C4F302534FF0000B0891022B04D001CF78
:10488000C117032B09D00AE0FF1D27F00707F7E83F
:10489000020108E032E01FE020E000B2C117042B63
:1048A00001D140B2C117031E71F1000307DA4FF0C6
:1048B000000CD0EB0C006CEB01012D2302E0230572
:1048C00004D52B238DF82430012303E0E30701D026
:1048D0002023F7E7984658E00A2110E010210EE067
:1048E00010204FF0000B08900CE010214FF0000B4F
:1048F00044F004044FF00809089103E008214FF048
:10490000000B0891C4F30253022B04D001CF002105
:10491000032B06D006E0FF1D27F00707F7E802018A
:1049200003E080B2042B00D1C0B24FF0000823078F
:104930002BD5702A07D0DDF820C08CF0100C5CEA73
:104940000B0C05D00EE040238DF82430012308E045
:1049500050EA010306D030238DF824308DF825204D
:1049600002239846DDF820C08CF0080C5CEA0B0CA2
:104970000BD150EA010301D1630706D530238DF82E
:1049800024304FF00108A9F10109582A04D038A2B7
:104990000B9208AA0A920BE03AA2F9E75B46089A42
:1049A000FFF7B7FD0B9B9B5C0A9A521E0A9213708D
:1049B00050EA0102F2D10A98ADEB000000F1200BA1
:1049C000600702D524F4803401E04FF00109D94595
:1049D00002DDA9EB0B0000E0002000EB0B014144DD
:1049E0000890AAEB010AE00306D4DDE90F23214673
:1049F000504600F063F806444FF0000908E009A9AA
:104A000011F80900DDE90F12904709F10109761C40
:104A1000C145F4DBE0030CD5DDE90F232146504608
:104A200000F04CF8064404E0DDE90F123020904716
:104A3000761C0899481E08900029F5DC08E00A98C1
:104A40000A990078491C0A91DDE90F129047761CFB
:104A5000BBF10001ABF1010BF1DC21465046DDE971
:104A60000F2300F019F806446D1C1BE6092801000D
:104A700030313233343536373839616263646566D4
:104A80000000000030313233343536373839414296
:104A900043444546000000002DE9F041044600254E
:104AA0001E461746880404D405E039462020B04746
:104AB0006D1C641EF9D52846BDE8F0812DE9F04152
:104AC000044600251E469046C80301D5302700E065
:104AD0002027880404D505E041463846B0476D1CC0
:104AE000641EF9D52846BDE8F08100004552524FBA
:104AF000523A2067697A50726F746F636F6C4973B2
:104B0000737565644461746141636B20756172748F
:104B1000207772697465206572726F722025642037
:104B2000646174614C656E202564200A00000000F9
:104B3000504B0008000000204C00000068460008B0
:104B40009C4B00084C0000200C2300007846000815
:104B500000A24A040000000000000000010203045B
:104B60000607080900000000010203040102030413
:104B70000607080902040608000000000000000003
:104B8000000000000000FF00000000000000000026
:0C4B900000000000000000000000000019
:0400000508000101ED
:00000001FF
